:1008000000100020290B0000550B0000550B0000C4
:10081000550B0000550B0000550B0000550B000058
:10082000550B0000550B0000550B0000550B000048
:10083000550B0000550B0000550B000089490000C6
:1008400089170000550B000065470000550B00009C
:10085000550B0000550B0000550B0000550B000018
:10086000550B0000550B0000550B0000550B000008
:10087000550B0000550B0000550B0000550B0000F8
:10088000550B000091330000550B0000550B000084
:10089000550B0000550B0000550B000010B5054C22
:1008A000237833B9044B13B10448AFF3008001231C
:1008B000237010BD8000002000000000E4690000EB
:1008C000084B10B51BB108480849AFF30080084831
:1008D000036803B910BD074B002BFBD0BDE81040E7
:1008E000184700BF00000000E469000084000020F9
:1008F0007C00002000000000154B002B08BF134BAC
:100900009D46A3F5803A00218B460F461348144AB2
:10091000121A05F0B4FD0F4B002B00D098470E4B78
:10092000002B00D098470020002104000D000D4846
:10093000002802D00C48AFF3008005F067FD2000CE
:10094000290004F0E5F805F04DFD00BF00000800A7
:1009500000100020000000000000000080000020C7
:10096000D4010020000000000000000080B483B02B
:1009700000AF03463960FB71FB79002B0DD0FB798A
:10098000012B0AD0FB79022B07D0FB79032B04D073
:10099000FB79042B01D0FB79052B0949FA793B68D7
:1009A000012000FA03F318461346DB0013449B00B2
:1009B0000B44103358600C37BD465DF8047B70471C
:1009C0000060004080B483B000AF03463960FB7123
:1009D000FB79002B0DD0FB79012B0AD0FB79022B80
:1009E00007D0FB79032B04D0FB79042B01D0FB79D2
:1009F000052B0949FA793B68012000FA03F31846F0
:100A00001346DB0013449B000B44103318600C3773
:100A1000BD465DF8047B70470060004090B585B02E
:100A200000AFB9607B600346FB731346BB73FB7B6F
:100A3000002B0DD0FB7B012B0AD0FB7B022B07D0B8
:100A4000FB7B032B04D0FB7B042B01D0FB7B052B12
:100A5000BB7B002B0DD07B68002B05D0FB7B1846A1
:100A6000B968FFF7AFFF04E0FB7B1846B968FFF7F2
:100A70007DFFBB68072B1CD82A4CFA7B2948F97BE1
:100A80000B46DB000B449B0003445B68B96889009C
:100A900008460F218140C9430B40B97BB8688000EC
:100AA000814019431346DB0013449B0023445960E3
:100AB00024E01C4CFA7B1B48F97B0B46DB000B4403
:100AC0009B00034408331968BB6803F18043083B6B
:100AD0009B0018460F238340DB431940B87BBB685B
:100AE00003F18043083B9B0000FA03F319431346CC
:100AF000DB0013449B00234408331960BB7B002BAD
:100B00000DD17B68002B05D0FB7B1846B968FFF739
:100B100059FF04E0FB7B1846B968FFF727FF14373D
:100B2000BD4690BD00600040064880470649074A20
:100B3000074B9A42BEBF51F8040B42F8040BF8E78A
:100B4000FFF7DAFEAD0C0000686C0000000000202A
:100B500080000020FEE700BF80B400AF044BDB6CD8
:100B60001B0EDBB21846BD465DF8047B704700BF24
:100B7000B081E00F80B582B000AF00F01FF8786060
:100B8000074B5B6803F00F031A467B68D3407B601A
:100B9000044A7B6813607B6818460837BD4680BDF1
:100BA00000800C40CC01002080B400AF024B1846FE
:100BB000BD465DF8047B70470048E80180B582B00F
:100BC00000AF2F4BDB6A03F47053B3F5805F0AD09C
:100BD000B3F5005F03D0B3F5006F08D00BE0294BED
:100BE0001B687B6047E04FF400437B6043E0264B8B
:100BF0001B687B603FE0224BDB6803F4E063B3F5E6
:100C0000007F1BD0B3F5007F05D8002B24D0B3F5AF
:100C1000807F16D02BE0B3F5806F09D0B3F5A06FBD
:100C200003D0B3F5407F06D021E0184B7B6021E074
:100C3000174B7B601EE0174B7B601BE0164B7B6005
:100C400018E0FFF789FF0346122B02D9134B7B6094
:100C500010E0134B7B600DE0FFF77EFF0346122B85
:100C600002D9104B7B6005E00F4B7B6002E0002354
:100C70007B6000BF00BF7B6818460837BD4680BD5B
:100C800000800C400800002004000020003FAB0161
:100C9000406F4001809FD500C0D8A70040B56400D8
:100CA000C0CF6A00804F120040420F0080B400AFF6
:100CB000BD465DF8047B704780B400AF4FF400433D
:100CC0001846BD465DF8047B704700BF80B400AF96
:100CD0004FF47A731846BD465DF8047B704700BF39
:100CE00080B400AF034B1B681846BD465DF8047B1B
:100CF000704700BF0800002080B487B000AFF860E4
:100D0000B9607A60FB6803F10473DA00BB681344CE
:100D10009B007B617B697A681A601C37BD465DF871
:100D2000047B704780B485B000AF786039607B6821
:100D300003F10473DA003B6813449B00FB60FB681B
:100D40001B6818461437BD465DF8047B704700BF2A
:100D500080B485B000AF78607B68002B04D07B68DE
:100D6000B3F5004F00D800BF7B68B3FA83F3C3F13B
:100D70001F03FB60FB6818461437BD465DF8047B13
:100D8000704700BF80B400AF044BDB6C1B0EDBB2BE
:100D90001846BD465DF8047B704700BFB081E00F88
:100DA00080B582B000AF214B5B6903F4E063B3F51B
:100DB000007F1CD0B3F5007F05D8002B25D0B3F5FC
:100DC000807F1FD02AE0B3F5C06F24D0B3F5E06F69
:100DD0001ED0B3F5407F21D1FFF7D4FF0346122B7D
:100DE00002D9134B7B601CE0124B7B6019E0FFF7CC
:100DF000C9FF0346122B02D90F4B7B6011E00F4B4A
:100E00007B600EE00E4B7B600BE00E4B7B6008E0DE
:100E10000D4B7B6005E00D4B7B6002E000237B60A7
:100E200000BF7B6818460837BD4680BD00800C4077
:100E3000804F120040420F0040B56400C0CF6A00EE
:100E4000C0D8A700809FD500406F4001003FAB0194
:100E500080B582B000AF0D4800F0A6FA0346FB70E3
:100E6000FB78072B05D0082B07D1FFF7A7FE78608A
:100E700006E0FFF795FF786002E000237B6000BF8B
:100E80007B6818460837BD4680BD00BF06000C00D1
:100E900080B485B000AF7860214BDB6B002B14BFB2
:100EA00001230023BB721E4B41F67132DA631C4BE7
:100EB0005B6803F00703FB60FB68012B02D800238B
:100EC000FB7202E00123FB7200BF7B68154A93426C
:100ED0000BD87B68144A934207D9FB7A002B01D0C8
:100EE000032300E00123FB6006E0FB7A002B01D026
:100EF000022300E00023FB600949094B5B6823F0F3
:100F00000702FB6813434B60BB7A002B02D0044BF3
:100F10000022DA631437BD465DF8047B704700BFDA
:100F200000000C400048E8010024F40080B500AF48
:100F3000FFF73AFE03461846FFF7AAFF80BD00BF41
:100F400080B584B000AF78600023BB607B68314A15
:100F5000934203D0304A934200D000E000BF78684B
:100F600000F022FA0346FB607B682A4A934203D0D2
:100F7000294A934206D00CE0284B9B6A03F00303F6
:100F8000FB6006E0254B9B6A03F00C039B08FB60AB
:100F900000BFFB68032B35D801A252F823F000BF35
:100FA000CD0F0000B10F0000B90F0000C10F00000D
:100FB000FFF782FEB86028E0FFF792FEB86024E0F9
:100FC000FFF7D8FD03465B08BB601EE00023BB6053
:100FD0007B68104A934203D07B680F4A934210D13A
:100FE0000E4B9A6A7B680B498B4201D1102300E0BB
:100FF000142322FA03F3002B03D0FFF767FEB86037
:1010000003E002E00023BB6000BFBB681846103756
:10101000BD4680BD02001A0003001C0000800C4089
:1010200080B483B000AF7860094B5B6D03F00103BF
:10103000002B00D006E000BF054B1A6D7B68134003
:10104000002BF9D10C37BD465DF8047B704700BF1B
:1010500000800C4080B584B000AF786039607B6858
:101060001B0903F00F03FB60FB68043B032B00F23A
:10107000918001A252F823F089100000B310000003
:10108000ED100000691100003B68002B04D03B68A4
:10109000B3F5007F00D800BF3868FFF759FE38600D
:1010A0003E493E4B9B6823F00F023B6813438B6025
:1010B00071E03B68002B04D03B68B3F5007F00D89B
:1010C00000BFFFF733FF3868FFF742FE386033494F
:1010D000324B5B6823F00F023B6813434B60FFF712
:1010E00049FDB860B868FFF7D3FE54E07B682C4A2E
:1010F000934217D02B4A934225D02B4A934200D0DB
:1011000031E00420FFF78CFF3868FFF721FE3860DC
:101110002249224B9B6E23F0F0023B681B011343D4
:101120008B6620E00420FFF77BFF3868FFF710FE96
:1011300038601A49194B9B6E23F470623B681B029E
:1011400013438B660FE00420FFF76AFF3868FFF750
:10115000FFFD38601149114B9B6E23F003023B6881
:1011600013438B6600BF16E07B68104A934200D0A1
:101170000FE04020FFF754FF3868FFF7E9FD3860C3
:101180000649064B1B6F23F003023B6813430B67B2
:1011900000BF00E000BF1037BD4680BD00800C409E
:1011A0006026140060062A00601610007007160002
:1011B00080B586B000AF78600B46FB7000233B61C2
:1011C0007B681B0A03F00F03013B092B3ED801A2E9
:1011D00052F823F00312000009120000FD11000074
:1011E0004D1200004D1200000F12000019120000F5
:1011F0004D1200004D12000023120000154B7B61C0
:1012000012E0154B7B610FE0144B7B610CE0144B3B
:101210007B6101233B6107E0124B7B6110233B6143
:1012200002E0114B7B6100BF7B681B0B03F01F03C7
:10123000FB603B69002B02D03869FFF7F1FEFB78B9
:101240007869F9681A46FFF757FD00E000BF1837C4
:10125000BD4680BD40800C4008800C4044800C405E
:1012600058800C4060800C4078800C4080B584B081
:1012700000AF78607B6803F47813B3F5801F42D029
:10128000B3F5801F12D8B3F5802F27D0B3F5802F88
:1012900005D8002B1ED0B3F5003F2BD076E0B3F578
:1012A000402F6BD0B3F5602F6CD06FE0B3F5D01F3B
:1012B00024D0B3F5D01F06D8B3F5A01F31D0B3F5B5
:1012C000B01F4ED062E0B3F5E01F45D0B3F5281F44
:1012D00035D05BE0FFF772FCF8605AE0FFF76EFC78
:1012E000F8602E4B9B6803F00F031A46FB68D3404F
:1012F000FB604EE0FFF73EFCF8604AE02848FFF74D
:101300001FFEF86045E02648FFF71AFEF860234B01
:101310009B6E03F0F0031B091A46FB68D340FB6089
:1013200037E01F48FFF70CFEF8601C4B9B6E03F480
:1013300070631B0A1A46FB68D340FB6029E018481B
:10134000FFF7FEFDF860154B9B6E03F003031A4692
:10135000FB68D340FB601CE01248FFF7F1FDF8602A
:1013600017E01048FFF7ECFDF8600C4B1B6F03F023
:1013700003031A46FB68D340FB600AE0FFF768FDF1
:10138000F86006E0FFF70CFDF86002E00023FB6068
:1013900000BFFB6818461037BD4680BD00800C407A
:1013A00002001A0003001C0080B485B000AF786012
:1013B0000123FB737B6803F00F03BB60BB68013B39
:1013C000052B77D801A252F823F000BFE5130000E7
:1013D0001B14000057140000B5140000B5140000E1
:1013E00093140000384BDB6A03F47053B3F5805F4D
:1013F00009D0B3F5005F03D0B3F5006F06D008E065
:101400000223FB7308E00323FB7305E00423FB7353
:1014100002E00523FB7300BF4FE02B4B9B6A03F0F8
:101420000303022B06D0032B07D0012B08D1032383
:10143000FB730FE00223FB730CE00623FB7309E050
:10144000214B9B6A03F48033002B02D00923FB73EA
:1014500000E000BF31E01C4B9B6A03F00C03082B3B
:1014600006D00C2B07D0042B08D10323FB730FE00D
:101470000223FB730CE00623FB7309E0124B9B6A0B
:1014800003F48013002B02D00923FB7300E000BF9C
:1014900013E00D4B1B6803F08053002B03D0B3F116
:1014A000805F03D009E00723FB7302E00823FB738E
:1014B00000BF02E00023FB7300BFFB7B184614371C
:1014C000BD465DF8047B704700800C4080B588B055
:1014D00000AF78600B46FB700323FB610323FB76B0
:1014E00000233B617B6803F00F03FB60FB68013B5B
:1014F000052B00F2BE8001A252F823F01515000062
:101500009515000095150000731600007316000075
:1015100049160000FB78023B072B00F2AC8001A2C9
:1015200052F823F0451500004F1500005915000032
:10153000631500007716000077160000771600008C
:10154000771600000423FB610023FB760EE00323E3
:10155000FB610123FB7609E00223FB610223FB769A
:1015600004E00123FB610323FB7600BFFB7E1846EA
:101570000121012200F08AF8FFF7D8FC414AFB69FB
:10158000536200F0F9FAFFF7F5FAB860B868FFF7B0
:101590007FFC73E0FB78013B082B6ED801A252F868
:1015A00023F000BFC9150000CF150000DF150000B3
:1015B0007B1600007B160000EF1500007B16000074
:1015C0007B160000FF15000000237B611CE000205B
:1015D0000121012200F05AF802237B6114E001206E
:1015E0000121012200F052F801237B610CE0264822
:1015F00002210122FFF780FB03237B6104E000232B
:101600007B6101233B6100BFFB68022B0DD11D49AB
:101610001C4B9B6A23F4803323F003037A691A433B
:101620003B691B0413438B6228E01649154B9B6AE8
:1016300023F4801323F00C037A6992001A433B6968
:101640001B0513438B6219E0FB78072B02D0082B94
:1016500007D013E00B4A0B4B1B6823F08053136039
:1016600006E0084A074B1B6843F08053136000BF35
:1016700004E000BF02E000BF00E000BF2037BD462D
:1016800080BD00BF00800C4040800C4080B586B01B
:1016900000AF0346FB710B46BB7113467B71FB79B0
:1016A000042B4AD801A252F823F000BFF91600001B
:1016B000EB160000CF160000C1160000DD1600007A
:1016C00001233B610223FB6001237B611DE00423B6
:1016D0003B610823FB6003237B6116E010233B6121
:1016E0002023FB6005237B610FE040233B618023C7
:1016F000FB6007237B6108E04FF480733B614FF48C
:101700000073FB6009237B6100BFBB79002B0ED007
:101710000C4A3B6913627B79002B0BD000BF0A484F
:101720007969FFF7FFFA0346002BF8D002E0054A7B
:10173000FB68136200F020FA00E000BF1837BD46D6
:1017400080BD00BF00800C402C800C4080B483B072
:1017500000AFEFF310833B603B687B6072B67B6841
:1017600018460C37BD465DF8047B704780B483B0E3
:1017700000AF78607B68002B00D162B60C37BD46A5
:101780005DF8047B704700BF80B58AB000AF334B73
:1017900003F580531B68BB61304B03F580530C335A
:1017A0001B68BA691340BB612C4B9B6B7B61BA69A8
:1017B0007B6913403B620023FB6149E000237B62AD
:1017C0003BE03B6A03F00103002B30D0234B9B68C6
:1017D0003B6101227B6A02FA03F3FB601F4B03F5B6
:1017E00080530833FA681A607B6A1B013A69134414
:1017F000DB68BB60BB68002B19D0BB681B7A7B60C1
:10180000BB681B7A83F00103DAB2BB681A72BB684B
:101810001B68002B0BD0BB681B68786A7A68002AAB
:1018200014BF01220022D1B2BA68526898473B6ABD
:101830005B083B627B6A01337B623B6A002BC0D151
:101840007B69DA43BB6913403B62FB690133FB618F
:10185000FB69012BB2DD2837BD4680BD00200C405E
:1018600080B500AFFFF786F980BD00BF80B400AF40
:10187000034B4AF6E8529A60BD465DF8047B704718
:1018800000600C4080B400AF034B0022C3F88420FA
:10189000BD465DF8047B704700800C4080B400AF0B
:1018A000044B45F60E02C3F88420BD465DF8047B68
:1018B000704700BF00800C4080B582B000AF384B4D
:1018C000D3F8843003F001037B60FFF7E7FF0023C8
:1018D0003B60344B1B6803F001033A6813433B60E1
:1018E000304B1B6803F010033A6813433B602D4BE9
:1018F0001B6803F040033A6813433B60294B1B68A5
:1019000003F004033A6813433B60264B1B6803F45F
:1019100080733A6813433B60214A3B681362214B52
:101920001B6803F47053B3F5805F06D0B3F5005F16
:101930000ED0B3F5006F16D020E000BF184BDB6A65
:1019400003F08003002BF9D0154B03225A6215E0F7
:1019500000BF134BDB6A03F40073002BF9D0104B6C
:1019600004225A620AE000BF0D4BDB6A03F0080351
:10197000002BF9D00A4B02225A6200BF094B1B68A8
:1019800003F00103002B02D1054B02221A627B688F
:10199000002B01D0FFF776FF0837BD4680BD00BFA2
:1019A00000800C409C00002080B483B000AF134B3B
:1019B0001B699BB203F03F039BB21B02FB800F4BE2
:1019C0009B6903F0F0039AB2FB881343FB800B4B37
:1019D000DB6903F0F0031B099AB2FB881343FB8019
:1019E000FB88B3F5817F94BF01230023DBB2184647
:1019F0000C37BD465DF8047B704700BFD0FF0FE099
:101A000080B586B000AF0346FB71194BDB6A194AFB
:101A10001360194A184B1B6943F004031361FFF765
:101A2000C3FF0346FB75FB7D002B08D0134B1A68E0
:101A3000134B1340FB60114AFB68C2F8803030BF83
:101A4000FB7D002B02D00D4AFB681360FB79002B55
:101A500002D0FFF731FF07E0064B1B6803F48063F9
:101A6000002B01D1FFF7FCFE1837BD4680BD00BF3B
:101A700000800C409C00002000ED00E000E100E050
:101A8000DC1CE4FF80B586B000AF0346FB71214B40
:101A9000DB6A214A13601F4BD3F8843003F0010343
:101AA0007B61FFF7FBFE1B4B4FF420721A627B69D0
:101AB000002B01D0FFF7E6FE184A184B1B6943F0D4
:101AC00004031361FFF770FF0346FB74FB7C002BDC
:101AD00008D0134B1A68134B1340BB60104ABB6805
:101AE000C2F8803030BFFB7C002B02D00C4ABB68B0
:101AF0001360FB79002B02D0FFF7DEFE07E0064BF8
:101B00001B6803F48063002B01D1FFF7A9FE18378F
:101B1000BD4680BD00800C409C00002000ED00E030
:101B200000E100E0DC1CE4FF80B584B000AF114BA5
:101B30001B6823F00C0343F00803BB600D4B1B68CC
:101B400043F00C037B60FFF791FE0023FB6008E08D
:101B5000084ABB681360074A7B681360FB6801335F
:101B6000FB60FB68032BF3DD024ABB681360103790
:101B7000BD4680BD00600C4080B400AF034BDB6A03
:101B8000034A1360BD465DF8047B704700800C403B
:101B90009C00002080B487B000AFF860B9607A6024
:101BA000FB6803F10473DA00BB6813449B007B619C
:101BB0007B697A681A601C37BD465DF8047B704704
:101BC00080B485B000AFF860B9607A60FB681A68CD
:101BD000BB68DB431A407B681A43FB681A60143702
:101BE000BD465DF8047B704780B588B000AFF860F3
:101BF000B9607A60FB707B68002B00D15EE0FB6807
:101C00001B6823F44072FB681A60FA68FB781B02B9
:101C100010464FF440711A46FFF7D2FFBB68002B05
:101C200003D12848FFF722FBB8604FF0FF33BB61B8
:101C3000FB681B6803F00203002B11D0FB78012B1B
:101C400007D0022B08D0002B00D019E01E4BBB613F
:101C500005E01E4BBB6102E01D4BBB6100BF0FE006
:101C6000FB78012B06D0022B07D0002B08D1194B93
:101C7000BB6105E0184BBB6102E0184BBB6100BFC4
:101C8000FB78174AD35C7B617B689B00BA68D21AE9
:101C90007B69796801FB03F3B2FBF3F3013BFB6162
:101CA000FB681B6803F00203002B04D0FB69002BC8
:101CB00001D10123FB61FA69FB681A612037BD4637
:101CC00080BD00BF4081040040164000C0D8A7007E
:101CD0008050740180841E0040548900002D310121
:101CE000F065000080B582B000AF786039607B6835
:101CF00000225A637B68114A1A637A683B685B78F2
:101D0000002B01D0002300E00123104601211A46D8
:101D1000FFF740FF3B6859683B689A683B681B7B4C
:101D20007868FFF761FF7A683B681B7810460021EE
:101D30001A46FFF72FFF0837BD4680BDCFFF0100D1
:101D400080B489B000AF78607B68A34A934205D124
:101D5000A24BBB61BB699B687B6101E0FC23F8E19E
:101D60007B689B6A3B613B6903F4C063002B14D022
:101D70003B6903F40073002B03D0BB69FD225A704A
:101D800007E03B6903F48063002B02D0BB69FE22AD
:101D90005A70BB6909221A70C7E1BB691B78082B0E
:101DA00000F2BB8101A252F823F000BFD11D000058
:101DB000231E0000A91E0000FB1E00004D1F000096
:101DC0009F1F00002F2000006D200000FF2000005A
:101DD0007B695B8803F01003002B09D07B691B88AB
:101DE0001B0A9BB203F0060343F0F003FB610EE015
:101DF0007B691B8803F0FE03FB617B695B8803F052
:101E00000203002B03D0FB6943F00103FB61BB69B4
:101E100001221A707B68FA695A627B6801225A6053
:101E200083E13B6903F08003002B0CD07B688022A8
:101E30001A63BB69FF225A70BB6908221A707B685B
:101E400002225A602FE03B6903F04003002B2AD0A6
:101E50007B6840221A637B695B8803F01003002BC8
:101E600008D0BB6902221A707B691B88DAB27B68D2
:101E70005A6218E07B695B8803F00203002B0ED0E6
:101E8000BB6907221A70BB691B797A69DB001344AE
:101E90001B89012B07D17B6808225A6045E1BB6989
:101EA00005221A7040E140E13B6903F08003002BFA
:101EB0000CD07B6880221A63BB69FF225A70BB6911
:101EC00008221A707B6802225A6015E03B6903F011
:101ED0004003002B10D07B6840221A637B695B882B
:101EE00003F00203002B03D0BB6903221A701BE12D
:101EF000BB6905221A7017E117E17B695B8803F063
:101F00001003002B09D07B691B881B0A9BB203F0CE
:101F1000060343F0F003FB6104E07B691B8803F0D8
:101F2000FE03FB617B695B8803F00403002B03D095
:101F3000FB6943F00103FB61BB6904221A707B68F3
:101F400001225A607B68FA695A62EEE03B6903F04D
:101F50008003002B0CD07B6880221A63BB69FF22B0
:101F60005A70BB6908221A707B6802225A6015E019
:101F70003B6903F04003002B10D07B6840221A63BA
:101F80007B695B8803F00403002B03D0BB69072245
:101F90001A7003E0BB6905221A70C5E0C5E0BB6991
:101FA0005A88BB691B797969DB000B441B899A420B
:101FB00028D3BB6900225A80BB691B790133DAB28E
:101FC000BB691A717B695B8803F00403002B07D09F
:101FD000BB6903221A70A7E000A00040A000002007
:101FE0007B695B8803F00103002B03D1BB691B797C
:101FF000012B06D9BB6908221A707B6802225A603D
:1020000093E091E0BB691B797A69DB0013445A685D
:10201000BB695B88591C88B2B969488013441B7836
:102020001A467B685A62BB6906221A707DE03B69DA
:1020300003F08003002B0CD07B6880221A63BB69FD
:10204000FF225A70BB6908221A707B6802225A600C
:102050000BE03B6903F04003002B06D07B68402275
:102060001A63BB6905221A705EE05EE03B6903F00B
:102070002003002B42D0BB691B797A69DB00134433
:102080001B89FB607B68DB69FB72BB695B881A4656
:10209000FB689A420ED2BB691B797A69DB00134454
:1020A0005A68BB695B88591C88B2B9694880134477
:1020B000FA7A1A70BB695B881A46FB689A420CD39D
:1020C000FB68012B02D17B6808225A60BB69082299
:1020D0001A707B6802225A6010E07B6804225A6002
:1020E000FB68012B0AD9BB695B881A46FB68013B78
:1020F0009A4203D17B6808225A6016E015E03B69DA
:1021000003F48073002B07D07B684FF480721A634E
:10211000BB6909221A7008E007E0BB69FB225A700C
:10212000BB6909221A7000E01AE6BB691B78092B0B
:102130000BD17B6800225A63BB695B785BB2012BD1
:1021400005D1BB6900225A7001E0012301E0BB699F
:102150005B785BB218462437BD465DF8047B704758
:1021600080B584B000AF786039607B68294A9342BB
:1021700008D1294BFB607B689B6803F00103002BAF
:1021800005D001E0FC233FE07B6820225A603B68D9
:102190005B8803F00203002B03D03B681B89002BF4
:1021A00009D03B685B8803F00403002B05D03B6833
:1021B0001B8A002B01D1FC2326E0FB6800221A7049
:1021C000FB6801225A70FB6800225A80FB680022DB
:1021D0001A71FB683A689A607B68C0225A607B6813
:1021E0009B6A03F02003002B01D07B68DB697B68CE
:1021F0000A4A1A637B685B6B43F4FC627B685A6330
:102200007868FFF79DFD03465BB218461037BD4660
:1022100080BD00BF00A00040A0000020CFFF010053
:1022200080B487B000AFF860B9607A60FB6803F1F2
:102230000473DA00BB6813449B007B617B697A6896
:102240001A601C37BD465DF8047B704780B400AF50
:10225000034B00229A60BD465DF8047B704700BFC7
:1022600000600C4080B400AF034B4AF6E8529A601D
:10227000BD465DF8047B704700600C4080B582B0BD
:1022800000AF0F4B01229A600E4B9B6803F00103D5
:102290007B607B68002B01D0FFF7E4FF0A48002138
:1022A0000122FFF7BDFF084800210022FFF7B8FF19
:1022B0007B68002B01D0FFF7C9FF0837BD4680BD02
:1022C00000A00C4000600C4024600C4080B485B03D
:1022D00000AF174B5B687B600023FB600023BB6093
:1022E0001CE0144ABB68DB0013445B683B60114A86
:1022F000BB6852F833207B681340002B0BD07A6800
:102300003B681340002B06D10A4ABB6852F83330B1
:10231000FA681343FB60BB680133BB60BB680A2BE0
:10232000DFD9FB6818461437BD465DF8047B70475B
:1023300000A00C40F465000080B487B000AFF860E6
:10234000B9607A60FB6803F10473DA00BB68134478
:102350009B007B617B697A681A601C37BD465DF81B
:10236000047B704780B485B000AF78607B68002B39
:1023700002D0012B04D007E0084B9B68FB6006E00D
:10238000064BDB68FB6002E00023FB6000BFFB68DC
:1023900018461437BD465DF8047B704700000840BE
:1023A00080B485B000AF786039607B68012B05D8B8
:1023B0003B6803F07F43002B00D100BF7B68002BFC
:1023C00002D0012B03D008E0064BFB6002E0064B75
:1023D000FB6000BFFB683A681A601437BD465DF8C1
:1023E000047B7047080008400C00084080B582B0AC
:1023F00000AF0346FB71FB79034800211A46FFF743
:102400009BFF0837BD4680BD0000084080B485B002
:1024100000AF78607B681B78002B02D00123FB6043
:1024200001E00023FB607B685B78002B03D0FB6836
:1024300043F00203FB607B689B78002B03D0FB68B2
:1024400043F00403FB60044AFB6813601437BD4685
:102450005DF8047B704700BF0000084080B500AF06
:102460000020FFF7C3FF0120FFF7C0FF80BD00BFC2
:1024700080B483B000AF786039607B68374A93429C
:1024800003D07B68364A934200D100BF3B681B787B
:1024900083F00103DBB2002B02D07B6802225A607A
:1024A0007B6800225A623B689B781A063B68DB789F
:1024B0001B041A433B689B799B021A433B68DB79F8
:1024C0001B0213433A68127A1A433B685B78002B6D
:1024D00001D0402300E000231A433B685B7A002BC5
:1024E00001D0802300E000231A433B689B7A002B35
:1024F00001D0202300E000231A433B68DB7A002B45
:1025000001D0102300E000231A433B681B79002B05
:1025100002D04FF4005300E000231A433B685B797C
:10252000002B02D04FF0805300E000231A433B6899
:102530001B7B002B01D0082300E000231A437B689B
:102540001A603B681B78002B02D07B6801225A601E
:102550000C37BD465DF8047B704700BF00000140AA
:102560000004014080B485B000AFF860B9607A60C3
:10257000FB68274A934203D0FB68264A934200D166
:1025800000BF7B681B789A067B685B781B061A4342
:102590007B689B781B041A437B68DB781B031A4318
:1025A0007B681B799B021A437B685B791B02134390
:1025B0007A6892791A437B68DB79002B02D04FF45A
:1025C000001300E000231A437B681B7A002B02D023
:1025D0004FF4801300E000231A437B685B7A002BE2
:1025E00001D0102300E000231A437B689B7A002B64
:1025F00001D0042300E000231A43F968BB680333C9
:102600001B010B441A601437BD465DF8047B70470C
:10261000000001400004014080B485B000AFF860C4
:10262000B9607A60FB681A68BB68DB431A407B6854
:102630001A43FB681A601437BD465DF8047B704787
:1026400080B586B000AFF860B9607A60BB68002BD7
:1026500003D11648FEF70AFEB860BB685B007B61D9
:102660007A687B691344013B7B617A697B68B2FBC2
:10267000F3F37B617B69043B7B617B699B017B613D
:102680007B69C0337B617B6923F0FF037B617A69DF
:10269000074B13407B61FB681433184604497A6981
:1026A000FFF7BAFF1837BD4680BD00BF4081040068
:1026B000C0FF1F0080B582B000AF786039607868D5
:1026C00000F04CF87B681A683B681B8A43F00103F2
:1026D0009BB219463B689B7B002B02D04FF4806372
:1026E00000E000230B431A437B681A607B681A687A
:1026F0003B681B7D002B02D04FF0005300E000230D
:102700001A437B681A603B689B7C002B07D03B68B0
:10271000DB7C43F01003DBB21A467B689A653B68AA
:102720001B7B43F480527B685A603B685A683B6865
:102730009B68786811461A46FFF782FF3B685B7B0F
:10274000002B02D07B681022DA603B681B781A46A7
:102750007B68DA600837BD4680BD00BF80B483B0B7
:1027600000AF78607B6840F6AA62DA607B6800227E
:102770001A607B6841F205025A607B6800229A6009
:102780007B6800225A617B680022DA647B6841F62C
:10279000F9729A647B6800225A657B680A4A934200
:1027A00002D17B6800221A657B6800229A657B68EB
:1027B000054A934202D17B680022DA650C37BD4698
:1027C0005DF8047B704700BF00C4004080B483B054
:1027D00000AF78600B46FB7000BF7B681B6903F09D
:1027E0004003002BF9D0FA787B685A6300BF7B68FE
:1027F0001B6903F02003002BF9D07B68DB69DBB297
:1028000018460C37BD465DF8047B70470C4B1968C1
:102810000A88C2EB20135B435200C2EBE000B1F91F
:1028200002201B135043B1F9042053439B1303EBC5
:10283000E020886100EB800080300012704700BF0C
:10284000AC00002070B5284B404219688A69B1F984
:102850000E305210A2F57A42941064435343B1F9FA
:102860001060E5125B0006FB0535B1F90A30641310
:102870006343B1F908406243521002EBE3039B1437
:10288000CA8803F500435343B1F90C20DB1312044B
:1028900002EBA50540F63542A0EB2530504300F190
:1028A000434000F5A000002804DBD3B14000B0FB9A
:1028B000F3F303E0ABB1B0FBF3F35B00DA08524390
:1028C000B1F91600520B4243B1F914009C08604361
:1028D000401300EB2232B1F91200024403EB221044
:1028E00070BD184670BD00BFAC00002073B500235A
:1028F0000093ADF80430144B05461B680C46F3B149
:102900005E6A587F6A460623F721B0479DF800307B
:102910009DF801201B0343EA02139DF8022043EABD
:1029200012132B609DF803309DF804201B0343EA2B
:1029300002139DF8052043EA1213236000E0812072
:1029400040B202B070BD00BFAC00002073B50023E0
:10295000009301930B4B05461B680E466BB101A912
:102960006846FFF7C3FF04460198FFF74FFF30604A
:102970000098FFF767FF286000E0812460B202B092
:1029800070BD00BFAC00002030B587B0344C684645
:102990000021182203F073FD2368002B5BD05D6AD1
:1029A000587F88216A461823A8479DF801109DF892
:1029B0000020236842EA01221A809DF903109DF845
:1029C000022042EA01225A809DF905109DF8042058
:1029D00042EA01229A809DF807109DF8062042EAFB
:1029E0000122DA809DF909109DF8082042EA0122AF
:1029F0001A819DF90B109DF80A2042EA01225A81A2
:102A00009DF90D109DF80C2042EA01229A819DF952
:102A10000F109DF80E2042EA0122DA819DF9111073
:102A20009DF8102042EA01221A829DF913109DF8A8
:102A3000122042EA01225A829DF915109DF81420B5
:102A400042EA01229A829DF917109DF8162042EA67
:102A50000122DA8200E0812040B207B030BD00BF21
:102A6000AC00002073B5144D00238DF807302860AA
:102A700005242B68D0215E6A587F0DF107020123DF
:102A8000B0479DF80730563B022B08D90A4B013C52
:102A90001B68E4B29B6A01209847002CE9D12B689F
:102AA0009DF807201A770CB9FF2001E0FFF76CFFB3
:102AB00040B202B070BD00BFAC00002073B5134C33
:102AC00000238DF8073023680546D3B15E6A587F2E
:102AD000F4210DF107020123B04798B99DF80730A2
:102AE000F42103F01F0343EA45138DF807302368F0
:102AF0000DF107021E6A587F0123B04723689D77B6
:102B000000E0812040B202B070BD00BFAC000020E8
:102B100013B500238DF807300C4B196881B10328D9
:102B200010D88B7FCA7F5B0103EB8203184402AA93
:102B300002F8010D0C6A487F0123F421A04702E04E
:102B4000812000E0FE2040B202B010BDAC000020A9
:102B500073B5134D00238DF807302B680446D3B1AD
:102B60005E6A587FF5210DF107020123B04798B93D
:102B70009DF80730A00023F01C0300F01C00184350
:102B80002B688DF807001C6A587FF5210DF10702AC
:102B90000123A04700E0812040B202B070BD00BF19
:102BA000AC00002073B5284C00238DF80730236853
:102BB0000546002B42D0042842D85E6A587FF42193
:102BC0000DF107020123B04700283AD1013D032D42
:102BD00003D8DFE805F0060B1015236801229A7769
:102BE00012E0236801229A7702220DE02368012275
:102BF0009A77032208E0236801229A77042203E0EF
:102C0000236802229A770522DA7721689DF8073037
:102C10008A7F03F01F0343EA421323F01C02CB7F99
:102C20000C6A9B0003F01C0313438DF80730487FA8
:102C30000DF10702F4210123A04702E0812000E00A
:102C4000FE2040B202B070BDAC00002080B483B062
:102C500000AF03463960FB71FB79002B0DD0FB7987
:102C6000012B0AD0FB79022B07D0FB79032B04D070
:102C7000FB79042B01D0FB79052B0949FA793B68D4
:102C8000012000FA03F318461346DB0013449B00AF
:102C90000B44103358600C37BD465DF8047B704719
:102CA0000060004080B483B000AF03463960FB7120
:102CB000FB79002B0DD0FB79012B0AD0FB79022B7D
:102CC00007D0FB79032B04D0FB79042B01D0FB79CF
:102CD000052B0949FA793B68012000FA03F31846ED
:102CE0001346DB0013449B000B44103318600C3771
:102CF000BD465DF8047B70470060004080B588B039
:102D000000AF78602D480121FEF752FA7B681B68FE
:102D10002B4A93424FD12B4BBB61B8690121FEF77F
:102D200047FA7B681A797B685B79104619460A2254
:102D30000123FDF773FE7B689A797B68DB79104687
:102D400019460A220123FDF769FE0023FB6112E008
:102D50007B681A797B685B7910461946FFF7A2FFFA
:102D60007B681A797B685B7910461946FFF76EFF1E
:102D7000FB690133FB61FB69082BE9DD7B681B689C
:102D80007A68127A120242F003029A6301233B72BC
:102D900001237B727B681B693B617B68DB68FB609E
:102DA0007B681B7D3B757B681A6807F1080310463A
:102DB0001946FEF797FF2037BD4680BD40810400CD
:102DC00000A0004000B2040080B584B000AF78607D
:102DD00039600E4BBB6078683968FFF7C1F903466C
:102DE000FB7304E07868FEF7ABFF0346FB7397F9CB
:102DF0000F30012B04D1BB685A1EBA60002BF1D1F1
:102E0000FB7B5BB218461037BD4680BDE0930400E3
:102E100080B483B000AF0346FB71084997F90730CF
:102E20005B09FA7902F01F02012000FA02F241F870
:102E300023200C37BD465DF8047B704700E100E0BD
:102E400080B483B000AF0346FB71094997F907309E
:102E50005B09FA7902F01F02012000FA02F26033E6
:102E600041F823200C37BD465DF8047B704700BF56
:102E700000E100E080B400AF034B5B681846BD463C
:102E80005DF8047B704700BF0000084080B483B049
:102E900000AF7860034A7B6893610C37BD465DF8EC
:102EA000047B70470000084080B483B000AF7860B6
:102EB0000549054BDA697B68DB431340CB610C376E
:102EC000BD465DF8047B70470000084080B483B0C5
:102ED00000AF78600549054BDA697B681343CB6125
:102EE0000C37BD465DF8047B704700BF000008400A
:102EF00080B483B000AF064BDB697B60044B1A697A
:102F00007B68134018460C37BD465DF8047B70475C
:102F10000000084080B586B000AF786000237B6178
:102F200000233B61FEF712FCF86002E07B6901338D
:102F30007B617B69032B0ADC16497A6913469B0087
:102F40001344DB000B4418339B79002BEED17B69D3
:102F5000042B02D1104B3B6114E07B68002B0FD097
:102F60000C497A6913469B001344DB000B44183369
:102F700001229A717A697B681A6000233B6101E043
:102F8000064B3B61F868FEF7F1FB3B6918461837C2
:102F9000BD4680BDB0000020011000F0041000F01C
:102FA00080B500AF1D4B1B78002B01D0002332E011
:102FB0001A4B01221A701A480121FEF7F9F8194834
:102FC0000321FEF783FA18480821FEF743F8164854
:102FD0000121FEF7EDF81548FFF718FA0720FFF773
:102FE00063FF0720FFF752FFFFF738FA1120FFF7C2
:102FF00027FF1120FFF70CFF0D480021A02203F04E
:103000003EFA0C4B00221A700B4B00221A700B4B2D
:1030100000221A600023184680BD00BF5A0100201C
:103020000023020002001A00601610004C66000027
:10303000B000002058010020590100205401002058
:10304000B0B58EB000AFF8607A603B600B46FB72A3
:103050000023FB62FB68032B01D98D4B8BE1FEF74C
:1030600075FBB8628B49FA6813469B001344DB007A
:103070000B4418339B7983F00103DBB2002B04D09F
:10308000B86AFEF773FB844B75E17B68002B0BD1AC
:103090003B68002B03D03B68F868B96C9847B86A66
:1030A000FEF764FB002366E1FFF7E4FE386379492D
:1030B000FA6813469B001344DB000B4418333A684C
:1030C0001A607B681A464FF00003DD0345EA52455B
:1030D000D40314F57A6245F10003104619464FF403
:1030E000FA524FF0000301F0BDFD02460B461046B8
:1030F0001946684CFA6813469B001344DB002344CE
:103100000833C3E90001FB7A012B27D17B684FF418
:103110007A7202FB03F15F48FA6813469B0013447E
:10312000DB0003440833D3E90023F42303FB02F359
:10313000CB1A18465749FA6813469B001344DB0024
:103140000B44103318605349FA6813469B0013442C
:10315000DB000B4410337A225A6017E04D49FA68BD
:1031600013469B001344DB000B440833D3E90023D0
:1031700012F1FF3043F1FF31464CFA6813469B00D1
:103180001344DB0023440833C3E900014149FA68D2
:1031900013469B001344DB000B440833D3E90023A0
:1031A000501C43F100013B4CFA6813469B0013444A
:1031B000DB002344C3E900013649FA6813469B004B
:1031C0001344DB000B44183301221A713149FA68A9
:1031D00013469B001344DB000B441833FA7ADA7170
:1031E0002C49FA6813469B001344DB000B44203340
:1031F000BA6C1A60294B1B78002B04D0B86AFEF712
:10320000B5FA0023B7E0264B1B68B3F1FF3F04D0AB
:10321000234B1B680133224A1360224B1B7883F037
:103220000103DBB2002B43D03B6B23F07F431E4AEC
:1032300013600220FFF72AFE1649FA6813469B0026
:103240001344DB000B44D3E90023C7E90823174BE1
:10325000FB61FB6918464FF00001D7E908238B4258
:1032600008BF824201D2104619460346BB613A6B41
:10327000BB69134423F07F4300201946FFF790F801
:103280000220FFF723FE074B01221A7066E000BF01
:10329000021000F0B0000020031000F058010020E0
:1032A0005401002059010020500100209BFFFF0025
:1032B000334B1B68012B51D13249FA6813469B00EE
:1032C0001344DB000B44183300221A710220FFF76D
:1032D000EBFD3B6B1A022C4B1B681B02D31A1B0A1B
:1032E0007B637B6B6FF07F42934201D100237B6352
:1032F000786B00F0A7F800F0F9F9FB6A002B09D110
:103300002049FA6813469B001344DB000B44183332
:1033100001221A71FB6A0133FB62386B00F018FA64
:10332000FFF7A8FD38633B6B1A02174B1B681B02A3
:10333000D31A1B0A7B630020FFF714F803461A0216
:10334000114B1B681B02D31A1B0A7B610F4B1B78A6
:10335000002B03D07A6B7B699A42B7D8084B1B6865
:10336000002B04D0064B1B68013B054A1360B86A6A
:10337000FEF7FCF9002318463837BD46B0BD00BF44
:1033800054010020B000002050010020590100200D
:1033900080B586B000AFFEF7D9F93861FFF7A8FD18
:1033A000F860FB6823F003031846FFF76FFDFB6826
:1033B00003F00203002B39D01F4B01221A70FFF7D4
:1033C00059FD78610220FFF76FFD7B691A021B4BE4
:1033D0001B681B02D31A1B0ABB60B86800F032F8E6
:1033E00000F084F9786900F0B3F9FFF743FD7861E4
:1033F0007B691A02114B1B681B02D31A1B0ABB60A4
:103400000020FEF7AFFF03461A020C4B1B681B029D
:10341000D31A1B0A7B600A4B1B78002B03D0BA68B7
:103420007B689A42CED8044B00221A703869FEF7A6
:103430009DF91837BD4680BD58010020500100207D
:103440005901002090B484B000AF78600023FB6085
:1034500041E1A549FA6813469B001344DB000B4485
:10346000183300225A71A049FA6813469B0013448E
:10347000DB000B4418331B79002B00F029819A499B
:10348000FA6813469B001344DB000B44D3E9002386
:10349000796808464FF00001994208BF904219D25E
:1034A0009149FA6813469B001344DB000B44D3E9AF
:1034B00000017B681A464FF00003801A61EB03019C
:1034C000894CFA6813469B001344DB002344C3E98C
:1034D0000001FDE08449FA6813469B001344DB00B9
:1034E0000B441833DB79002B0AD17F49FA68134665
:1034F0009B001344DB000B44183300221A71D2E006
:103500007949FA6813469B001344DB000B440833E7
:10351000D3E900017B681A464FF00003801A61EB83
:103520000301714CFA6813469B001344DB002344EB
:10353000D3E90023801841EB03016B4CFA68134672
:103540009B001344DB002344C3E900016649FA6889
:1035500013469B001344DB000B4410331B68002B05
:1035600050DD6149FA6813469B001344DB000B44AD
:10357000103359685C48FA6813469B001344DB001B
:10358000034410331B6819445748FA6813469B00DC
:103590001344DB000344103359605349FA6813465F
:1035A0009B001344DB000B4410335B68F32B7AD988
:1035B0004D49FA6813469B001344DB000B44D3E9E2
:1035C0000023501C43F10001474CFA6813469B004E
:1035D0001344DB002344C3E900014349FA6813465E
:1035E0009B001344DB000B4410335B68A3F1F40130
:1035F0003D48FA6813469B001344DB000344103334
:10360000596050E03849FA6813469B001344DB00C8
:103610000B44103359683448FA6813469B0013442E
:10362000DB00034410331B68C91A2F48FA6813469D
:103630009B001344DB000344103359602A49FA68A5
:1036400013469B001344DB000B4410335B68F32BE1
:1036500029D92549FA6813469B001344DB000B4423
:10366000D3E9002312F1FF3043F1FF311E4CFA6819
:1036700013469B001344DB002344C3E900011A49AD
:10368000FA6813469B001344DB000B4410335B685D
:10369000A3F1F4011448FA6813469B001344DB00BD
:1036A0000344103359601049FA6813469B001344D1
:1036B000DB000B4418331B68002B09D00A49FA6859
:1036C00013469B001344DB000B44183301225A714C
:1036D000FB680133FB60FB68032B7FF7BAAE103742
:1036E000BD4690BC704700BFB000002090B583B0CD
:1036F00000AF00237B6022E014497A6813469B00E8
:103700001344DB000B4418335B79002B14D00F49B2
:103710007A6813469B001344DB000B4418331C6883
:1037200078680A497A6813469B001344DB000B440F
:1037300020331B681946A0477B6801337B607B6898
:10374000032BD9DD0C37BD4690BD00BFB000002073
:1037500080B58AB000AF78604FF0FF324FF0FF3392
:10376000C7E9062300237B6227E037497A6A1346BC
:103770009B001344DB000B4418331B79002B19D03A
:1037800031497A6A13469B001344DB000B44D3E9AA
:103790000001D7E90623994208BF90420AD22A497C
:1037A0007A6A13469B001344DB000B44D3E90023E1
:1037B000C7E906237B6A01337B627B6A032BD4DD76
:1037C000224B00221A70D7E90623B3F1FF3F08BF4E
:1037D000B2F1FF3F35D0D7E90623C7E904231C4BDC
:1037E000FB60FB681A464FF00003D7E904019942D9
:1037F00008BF904201D202460B46C7E90623154B8B
:103800001B7883F00103DBB2002B05D07B6823F02B
:103810007F43114A136002E00F4A7B681360022065
:10382000FFF734FBBA697B68134423F07F43002021
:103830001946FEF7B5FD054B01221A700220FFF76D
:1038400045FB2837BD4680BDB0000020590100204F
:103850009BFFFF00580100205001002080B58CB074
:1038600000AFF8607A601A460B46FB721346BB72D3
:10387000FB7A9BB23B8304237B83BB7A3B7407F1C7
:103880001003FB6101233B8407F114037B620223D5
:103890003B8507F11803F8681946FFF795FA0346C8
:1038A00087F82F3097F92F30002B05D07B68002246
:1038B0001A6097F92F3008E03B7D1A027B7D03F0F8
:1038C000FC031A447B681A60022318463037BD4651
:1038D00080BD00BF80B586B000AFF8607A603B6005
:1038E0000B46FB72FB7AF86819467A68E523FFF706
:1038F000B5FF78617B69022B17D17B681B6843F6A3
:10390000095202FB03F35B0BA3F5BB53103B7A6830
:103910001360FB7AF86819463A68E023FFF79EFFC8
:1039200078617B69022B11D102E04FF0FF330FE089
:103930003B681B6845F2CD5202FB03F35B13A3F512
:103940003743023B3A681360002301E04FF0FF3336
:1039500018461837BD4680BD80B58EB000AFF86000
:103960000B467A60FB72FB7A9BB23B8404237B8418
:10397000FC233B75C9237B7507F114037B6202238B
:103980003B8507F11803FB6208233B8607F1200300
:10399000F8681946FFF718FA034687F8373097F9A1
:1039A0003730002B01D0002306E07B68002B02D0CB
:1039B0003A7E7B681A70012318463837BD4680BDB1
:1039C00080B487B000AFF860B9607A60FB6803F13B
:1039D0000473DA00BB6813449B007B617B697A68DF
:1039E0001A601C37BD465DF8047B704780B400AF99
:1039F000054A054B1B6923F00403136130BFBD4624
:103A00005DF8047B704700BF00ED00E080B500AFBB
:103A1000024801210122FFF7D3FF80BD00600C4066
:103A200080B582B000AF78603960104A7B6813605F
:103A30000F4A3B6813600F4B00221A700D4B002297
:103A40005A70FEF743FC034603F48073002B09D041
:103A5000FEF714FC064B1B68002B03D0044B1B68BD
:103A6000042098470837BD4680BD00BF5C01002098
:103A7000600100206401002080B582B000AFFDF736
:103A800065FE386000F03CF80346FB71FB79002BC3
:103A900007D0FB79032B04D8FB79184600F050F8C7
:103AA00001E00023FB713868FDF760FEFB791846E2
:103AB0000837BD4680BD00BF80B582B000AF034669
:103AC000FB71FB79012B03D9FB79032B00D800BFD5
:103AD000FB79022B02D0FB79032B0CD1FB79023B43
:103AE000064AD25C0132D1B2044AD154FB79022B8E
:103AF00001D1FFF78BFF0837BD4680BD6401002070
:103B000080B483B000AF0123FB710C4B1B78002BFA
:103B100007D10223FB71094B5B78002B01D10323F2
:103B2000FB71FB79032B01D90323FB71FB79184649
:103B30000C37BD465DF8047B704700BF6401002070
:103B400080B582B000AF0346FB71FB79002B03D038
:103B5000FB79042B00D800BF194B1B68002B04D045
:103B6000174B1B68FA7910469847FB79013B032BEA
:103B700018D801A252F823F0893B00008F3B0000C7
:103B8000973B00009F3B0000FFF730FF0BE0012058
:103B9000FDF736FF07E00120FDF774FF03E0FDF7B6
:103BA000C3FF00E000BF074B1B68002B04D0054B90
:103BB0001B68FA79104698470837BD4680BD00BF9C
:103BC0005C01002060010020704710B5044602F03F
:103BD000E4FA204610BD000070B586B06C4606467B
:103BE0001F4B012103601F48FDF7E2FA1E48012127
:103BF000FDF7DEFA0220002104220123FCF70EFF6C
:103C000001210A4602200023FCF708FF0120034699
:103C100007210422FCF702FF012002460B210023AA
:103C2000FCF7FCFE0020014604220123FCF7F6FE0F
:103C30000E4D0120082104220346FCF7EFFE0FCDB4
:103C40000FC495E8030084E80300094C6946204648
:103C5000FEF730FD30460B23636506B070BD00BF34
:103C6000706600000062040000320400506600002C
:103C700000C400400148FEF7A9BD00BF00C40040D9
:103C80004388417901229A4024234B4303F1804326
:103C900003F5C0431A6170474388417901229A4075
:103CA00024235943014B5A50704700BF1460004011
:103CB000F8B50E4614461D460746FFF7EDFF06F021
:103CC0001F010948FFF7D6FF06462544AC4206D03F
:103CD0000548FF21FFF7CEFF04F8010BF6E7384651
:103CE000FFF7CEFF3046F8BD9401002070B50E46B8
:103CF000094C0546FFF7D0FF06F01F012046FFF7ED
:103D0000B9FFFF212046FFF7B5FF04462846FFF71D
:103D1000B7FF204670BD00BF94010020F8B50E46E5
:103D200014461D460746FFF7B7FF06F01F010A4875
:103D300041F02001FFF79EFF06462544AC4205D026
:103D400014F8011B0448FFF795FFF7E73846FFF723
:103D500097FF3046F8BD00BF94010020F8B50C462F
:103D60000A4D17460646FFF797FF04F01F01284645
:103D700041F02001FFF77EFF044639462846FFF751
:103D800079FF3046FFF77CFF2046F8BD9401002004
:103D90002DE9F041C4799846A24228BF2246037A11
:103DA00005460F46164613B9A41AE4B200E00024F3
:103DB0002846FFF771FF41460D48FFF75BFF80463D
:103DC0003E44B74205D017F8011B0948FFF752FFE0
:103DD000F7E734B106480021013CFFF74BFFE4B29E
:103DE000F7E72846FFF74CFF4046BDE8F08100BFEB
:103DF0009401002038B50C460546FFF74DFF2146DB
:103E00000448FFF737FF04462846FFF739FF2046EE
:103E100038BD00BF94010020E221FFF7EBBFE12194
:103E2000FFF7E8BFFF21FFF7E5BF00001FB5C1F3B3
:103E300000120092C1F34202019201F001020292CB
:103E40000448C1F38012C1F3401300F0AFFD05B088
:103E50005DF804FB06670000F8B515461C460746EA
:103E60000B4800F0A3FD2C44E4B2A5420BD0294638
:103E70003846FFF73BFF6E1C0146F6B2054800F0DE
:103E800095FD3546F1E70448BDE8F84000F08EBDE9
:103E9000766700007C6700000B6800002DE9F84F92
:103EA00000AF93461D468046174800F07FFD5D44F5
:103EB000EDB2AB4521D098F80E30E946DA1D22F07C
:103EC0000702ADEB020D59466A4640465C1EFFF7FD
:103ED000EFFE0E48EA4600F069FD0BF10106F6B26E
:103EE0006C445445234605D309481978013C00F039
:103EF0005DFDF6E7B346CD46DBE70648BD46BDE8C7
:103F0000F84F00F053BD00BF7667000084670000E3
:103F10007F6700000B68000010B54371202302800A
:103F2000C371BDF80820052383730023428001710B
:103F3000437210BD7D290A4628BF7D220521FFF767
:103F40000DBF000010B504460388017901229A4094
:103F500024235943154B5A50806900F00DFD20462B
:103F60001D21FFF7C3FE830705D5A06900F004FDFE
:103F70002046FFF754FF2046FFF74EFF2046002162
:103F8000FFF7B4FE002100F0FE022046FFF7E6FE38
:103F900020460221FFF7AAFE40F00102022120463E
:103FA000BDE81040D2B2FFF7D9BE00BF1460004098
:103FB00010B50388017901229A4024235943074B05
:103FC00004465A500021FFF791FE002100F0FD0247
:103FD0002046BDE81040FFF7C1BE00BF146000409E
:103FE00010B500210446FFF781FE00F0020303F044
:103FF000FF0153B940F00202D2B22046FFF7AEFEF5
:10400000BDE81040052000F0C7BC10BD10B5002170
:104010000446FFF76BFE00F0020303F0FF0143B913
:1040200040F00202D2B22046FFF798FE00F0A6FC54
:10403000206110BD10B5044600F0A0FC2369C01A31
:10404000032894BF0020012010BD10B5002B14BF21
:10405000B023A0230446FFF79BFE9DF8083053B120
:104060002388217901229A4024234B4303F1804382
:1040700003F5C0431A6110BD37B50124009405460D
:10408000FFF7E3FF2846FFF7CDFE10F0300FF9D021
:104090002B882A79012404FA03F124235A43084B7C
:1040A0002846995007217022FFF758FEC30604D511
:1040B0002846FFF7B4FE002000E0204603B030BDE4
:1040C000146000400023FFF7D7BF37B5044602ADA8
:1040D00065E902230A212A46837BFFF71FFE2A4651
:1040E000A37B20461021FFF719FE20461121E2791B
:1040F000FFF734FE03B030BD37B50446CDE90023E9
:104100000D4629B96946A27B093002F0ADF903E0FA
:10411000062921D8012905D1104B2046595D6A4650
:10412000A37B03E06A460D4B595C0123FFF7F6FDC4
:104130000B4BE279595D2046FFF710FE0221204625
:10414000FFF7D4FD074B01225B5D02219A40024339
:10415000D2B22046FFF702FE03B030BD0067000078
:10416000AF6600005C68000038B5023911F0FF024C
:10417000054608D002F00304224603210234FFF76B
:10418000EDFDAC7338BD0321FFF7E8FD0223AB73EF
:1041900038BD000038B50D4602210446FFF7A6FDE4
:1041A000064B01225B5D02219A4020EA0202D2B254
:1041B0002046BDE83840FFF7D1BD00BF5C68000075
:1041C00010B50446FFF70CFF00212046FFF78EFDD7
:1041D00040F001020021D2B22046FFF7BFFD0721C7
:1041E00070222046FFF7BAFD2388217901229A40E8
:1041F00024234B4303F1804303F5C0431A61617AE2
:10420000204631B10A2104F10902A37BFFF786FDA4
:1042100001E0FFF7BFFF2046FFF7FEFD20461D210E
:10422000FFF764FD830704D52046BDE81040FFF783
:10423000F6BD10BD0A46012102B13F22FFF78EBD37
:1042400038B50C4606210546FFF750FD032C9CBFF0
:104250006400013400F0F80294BF04F0FF04072466
:10426000284622430621BDE83840FFF777BD08B550
:104270000621FFF73BFDC0F3410008BD70B50E46B7
:1042800006210546FFF732FD022E00F0D70404D1C7
:1042900044F020044FF4E17305E0012E12BFFA232D
:1042A00044F00804BE23AB61224628460621FFF7EE
:1042B00055FD28460621FFF719FD031B58425841BA
:1042C00070BD08B50621FFF711FD00F02800202879
:1042D00004D0A0F108035842584108BD022008BD8F
:1042E00038B50C4600210546FFF700FD00F0F3024B
:1042F0002CB1012C0CBF42F0080242F00C022846FF
:10430000BDE838400021FFF729BD38B5002105463A
:10431000FFF7ECFC044601212846FFF7E7FC2307E2
:1043200000D420B114F0040F14BF0220012038BDC6
:1043300010B50446FFF776FD01462046FFF776FDEF
:10434000204631490A220223FFF7A8FD20462F49C3
:104350000C220423FFF780FD20462D491022012363
:10436000FFF79CFD20462B4911220623FFF774FD21
:104370000122204613462849FFF76EFD20462749B3
:1043800002220123FFF768FD20462549052201236B
:10439000FFF762FD2046234906220123FFF75CFD5B
:1043A0002046214900220123FFF756FD20461F49E0
:1043B0001C220223FFF750FD2046FFF782FF024632
:1043C0001B4B1C4853F8221000F0F0FAA2791A4B4C
:1043D0001A4853F8221000F0E9FA2046FFF795FF3B
:1043E0000246174B174853F8221000F0DFFA204618
:1043F000FFF73DFFBDE810400246134B134853F84A
:10440000221000F0D3BA00BF886700009567000053
:10441000A2670000AB670000B6670000BD67000040
:10442000C7670000CE670000D7670000DF670000A5
:10443000F4660000ED67000054680000FF670000AC
:104440009C6600000E680000D46600002168000031
:1044500002F00F0242EA0112D2B20421FFF77EBC41
:1044600080B483B000AF0346FB71084997F9073069
:104470005B09FA7902F01F02012000FA02F241F80A
:1044800023200C37BD465DF8047B704700E100E057
:1044900080B483B000AF0346FB71094997F9073038
:1044A0005B09FA7902F01F02012000FA02F2603380
:1044B00041F823200C37BD465DF8047B704700BFF0
:1044C00000E100E080B483B000AF78607B685B6A95
:1044D00018460C37BD465DF8047B704780B483B046
:1044E00000AF786039607B683A689A610C37BD46E6
:1044F0005DF8047B704700BF80B483B000AF786084
:1045000039607B68DA683B68DB431A407B68DA60B5
:104510000C37BD465DF8047B704700BF80B483B0A4
:1045200000AF78607B681B6918460C37BD465DF8A4
:10453000047B704780B483B000AF786039607B68DB
:104540003A68DA610C37BD465DF8047B704700BFFE
:10455000B0B588B000AF01233B7300237B73002309
:10456000BB730023FB7300233B7400237B74002385
:10457000BB740023FB7400233B7500237B75002371
:10458000BB750023FB7500233B7600233B700023A3
:104590007B700023BB700023FB7000233B71002362
:1045A0007B710023BB710023FB7100233B7200234E
:1045B0007B720023BB720223BB7136480121FCF7DA
:1045C000F7FD35484FF6FF71FFF7B4FF3B46324821
:1045D00000211A46FDF7C6FF0023BB7307F10C0349
:1045E0002D481946FDF744FF2C48FCF73FFE0246D4
:1045F0002B4B1A602A4B1B68BA7BD340284A1360A6
:10460000BB7B0133DBB2BB73BB7B0A2B04D8244BCF
:104610001B68244A9342E1D82348FCF727FE024650
:10462000224BB3FBF2F3FB611D4B1B6818464FF0A6
:104630000001FB691A464FF0000302FB01F500FB85
:1046400003F42C44A0FB0223E1180B4618484FF05A
:104650000001121843EB010310461946154A4FF0AA
:10466000000300F0FFFA02460B46134B1A60134B8F
:1046700000221A7008481021FFF73EFF0220FFF7C2
:1046800007FF0220FFF7ECFE002318462037BD4647
:10469000B0BD00BF004204000000014040810400A2
:1046A0006801002080841E005000020000B0710BE1
:1046B00020A1070040420F006C0100207001002083
:1046C000B0B584B000AF7860224B1B6818464FF03D
:1046D00000017B681A464FF0000302FB01F500FB66
:1046E00003F42C44A0FB0223E1180B461A484FF0B8
:1046F0000001121843EB010310461946174A4FF008
:10470000000300F0AFFA02460B46C7E902230DE0B2
:104710004FF6E85000F040F8D7E9022310484FF078
:10472000FF31121843EB0103C7E90223D7E9022343
:104730004FF6E8504FF00001994208BF9042E7D38E
:104740003B89184600F028F8002318461037BD466C
:10475000B0BD00BF6801002020A1070040420F004B
:104760001802FFFF80B582B000AF0948FFF7D6FE00
:1047700078607B6803F01003002B06D004481021FA
:10478000FFF7ACFE034B01221A700837BD4680BD0F
:10479000000001407001002080B584B000AF0346E6
:1047A000FB80FB88002B12D00A48FFF78BFE0346E4
:1047B000FB810848FFF786FE03469BB2BB81BB899D
:1047C0009AB2FB89D31A9BB2FA889A42F1D8103771
:1047D000BD4680BD0000014010B51F4C01212046A0
:1047E000FFF7A8FB20460321FFF72AFD2046002102
:1047F000FFF744FD20460121FFF71CFD01210A4679
:104800002046FFF725FE20460421FFF7ADFC0121DD
:104810002046FFF765FD2046FFF794FB0AA3D3E986
:1048200000232046FFF751FC09A3D3E900232046CB
:104830000121FFF761FC2046FFF7C2FC2046BDE8DE
:104840001040FFF775BD00BF909356DF00000000D9
:10485000A4B104AC00000000740100207047000007
:1048600008B501200521FCF731FE15480121FCF7B0
:104870009FFC14480121FCF79BFC13480621FCF720
:1048800025FE12480121FCF793FC11480121FCF799
:104890008FFC1048FCF7EAFC4FF47A73B0FBF3F09E
:1048A0000138B0F1807F0AD20B4B0C4AE0215860EE
:1048B00082F8231000229A6007221A6008BDFEE7E2
:1048C000408104000023020003001C007007160052
:1048D000006204005000020010E000E000ED00E083
:1048E00010B5234C4FF400534FF40042A363E2652C
:1048F0004FF48052C4F8A4200120C4F8A4300D2144
:1049000004220023FCF78AF8012002460E2100232E
:10491000FCF784F802200F2104220023FCF77EF824
:10492000042002460C210023FCF778F804200246FC
:1049300000230D21FCF772F8D4F8B8300D4A23F0AB
:104940000F0343F00403C4F8B830D4F8B83023F0B0
:10495000F00343F01003C4F8B830536D23F4E06360
:1049600043F440735365536D43F00303536510BD27
:104970000060004000400840FFF7A2BE014B1868ED
:10498000704700BF98010020024A1368013313608A
:10499000704700BF98010020034B19681A68521A2B
:1049A0008242FBD3704700BF980100200FB404B0CF
:1049B00070470FB404B070470148FFF7F9BA00BF61
:1049C000740100200148FFF721BB00BF74010020E3
:1049D00038B505460C460948FFF72CFB0028FAD0ED
:1049E0000648FFF7AFFA224629460448FFF76AFB5C
:1049F00004460248FFF7E4FB204638BD740100205E
:104A000013B5094C2046FFF7E7F820460749084A46
:104A100001F0BEFB0021082300930A46012305484C
:104A2000FFF77AFA02B010BD94010020C93B0000E4
:104A3000000000207401002000B589B08DF8071037
:104A40000421ADF80E10ADF81C300DF10701074B35
:104A500004910121ADF80C00ADF81410186803A9F9
:104A60000692FEF7B1F909B05DF804FBBC01002025
:104A700000B589B08DF807100821ADF80E10ADF81B
:104A80001C300DF10701074B04910121ADF80C001A
:104A9000ADF81410186803A90692FEF795F909B04D
:104AA0005DF804FBBC01002010B5134B1B7873B1FB
:104AB000124C04F1140104F11000FDF747FF01202E
:104AC000FEF726F80E4861692269FFF76FFF0D4B6C
:104AD0001B7883B1094C0C4B04F118021868802133
:104AE00004F11C03FEF7F6FEE169A2690748BDE880
:104AF0001040FFF75BBF10BDC00100209C010020EB
:104B00007C680000C1010020BC0100209D680000FD
:104B100030B595B0414DFFF7A3FE03ACFFF7E0FEC3
:104B2000FFF716FDFFF79AFE3D48FFF742FFFFF73C
:104B300053FE0FCD0FC495E8030084E8030003A8DB
:104B4000FEF7DCF8374C384B002001462360FEF7B7
:104B500067FF0320FEF7B0FFFEF722FA3348FEF7A7
:104B6000D9F9334B09A81293324B334D1193334B80
:104B70001393EE238DF84130FDF774FF08B901233C
:104B80002B702B780BB12E4800E02E48FFF70EFF5C
:104B90002B785BB10020FDF791FF0020FDF7D8FFD7
:104BA0000120FDF7B5FF0020FDF7FCFF2068802104
:104BB0000DF10B02FEF7D0FE234B08B101221A7053
:104BC0001B780BB1214800E02148FFF7EFFE0023DE
:104BD000164A0093106801214EF66022FEF730FA63
:104BE0001C4B1A681C4B5A7032221A7130225A71AF
:104BF0001A4A12689A601A4A1268DA6006221A7013
:104C0000FFF752FF1E211448FFF7E2FEFFF7D4FE24
:104C1000FEF732FFFFF7D6FEF2E700BF6468000040
:104C2000BC680000BC01002000A00040C4010020BE
:104C3000394A0000714A0000C00100209949000073
:104C4000C2680000D1680000C1010020E4680000D3
:104C5000F368000038080C429C010020F081E00F4E
:104C6000F481E00F53B94AB9002908BF00281CBFDE
:104C70004FF0FF314FF0FF3000F0FABF82B0EC464A
:104C80002DE9005000F01EF8DDF804E002B00CBC85
:104C9000704700BF2DE9F041069C904606460F463E
:104CA0001D4600F0E7FF08FB01FCA8FB002300FB0A
:104CB00005C5B21A2B4467EB03038646C4E90023FB
:104CC000BDE8F0812DE9F843089E174680468946E5
:104CD0001D4601F025F900FB05F3A0FB074507FB86
:104CE0000137B8EB04043D4469EB0505C6E900450E
:104CF000BDE8F88303685A004CBF43F0004323F03B
:104D000000431844704700BF2DE9F04F83B099B3BA
:104D10004B1E1746054698460193002606EB0804ED
:104D200004EBD47464104FEAC40A05EB0A0B58462E
:104D3000FFF7E0FF019B8146A3420AF108002844E7
:104D40000ED0FFF7D7FFB94500F1FF3004D9B442C8
:104D50000CD004F1FF38E1E7B84203D2661CDDE76E
:104D6000B945F4D8584603B0BDE8F08F4FF0000BBA
:104D7000584603B0BDE8F08F8B46584603B0BDE8F7
:104D8000F08F00BF012807D0022807D0044B00286D
:104D90000CBF184600207047024870470248704711
:104DA000995400009D540000A154000030B5254BDB
:104DB00083B004468D1E7BB3284601A9AFF3008063
:104DC00020B301992A46FFF79FFF0546F0B1FFF790
:104DD00091FF6B68A064012B12D0002B05F1040039
:104DE00021DBFFF787FF0023E06423650368002BC6
:104DF0001DDBFFF77FFF00232061184603B030BDA5
:104E0000002323610523184603B030BD002323612E
:104E10000923184603B030BD0B490C4B0846591AFC
:104E2000C9100191CEE70123E0642365DEE7C3F3F7
:104E30000360FFF7A7FF002820610CBF09230023B0
:104E4000DBE700BF00000000586A0000686C00004B
:104E5000036810B5DA07044606D49B0700F1480042
:104E600009D500F085FC2368590709D51A070ED526
:104E7000DB0613D510BD00F073FC23685907F5D489
:104E800004F1D00000F07CFC23681A07F0D404F58C
:104E9000A87000F07DFC2368DB06EBD404F5E87015
:104EA000BDE8104000F0B8BC03680BB1184470476F
:104EB0001846704709207047704700BF70B5044618
:104EC0000D4608E02A6C23696261012021462A46CA
:104ED0009847082808D12046296CFFF767FF064647
:104EE0000028EFD001F069FA0728FBD13046296C81
:104EF000FFF7E2FF281D00F027FC00BF2DE9F04777
:104F00000646ADF5727D03AD0C1D17460FCC0FC5DF
:104F10000FCC0FC50FCC0FC594E80F0002AC4FF0BB
:104F2000000ED6F80C80D6F8189085E80F003046B1
:104F3000216CC4F800E0FFF739FF0546002F0CBFD5
:104F400009270A277DB1A36B47F010018DE81002F5
:104F50000120636432463346C04778BB28460DF5CE
:104F6000727DBDE8F087236C214673614FF4F072C7
:104F70007AA801F079FA336931467AAA3846984717
:104F8000889B82468DE810023946636401203246D0
:104F90003346C04790B920467AA94FF4F07201F029
:104FA00063FABAF1080F06D13046216CFFF7FEFE16
:104FB00009270546C6E7BAF1070F04D009200DF509
:104FC000727DBDE8F0872846216CFFF775FF03A8C6
:104FD00000F0BAFB406C7047F0B5CB6BF9B00B64D6
:104FE0000E1D01AD0F4604460FCE0FC50FCE0FC5E7
:104FF0000FCE0FC596E80F004FF0FF3685E80F0083
:10500000009606E0236921466A4698470828054627
:1050100008D120461099FFF7C9FE0028F2D00920D8
:1050200079B0F0BD6846FFF713FF062DF7D1204693
:105030003946FFF743FF00BF30B4DD6BC1608261CA
:1050400019461D64002230BC58E700BF70B54369A3
:10505000C66804460D460B6426B10122FFF74EFFD9
:1050600001F0ABF90369214602202A469847072838
:1050700007D0082803D120462946FFF71FFF01F07B
:105080009CF93046296CFFF717FF281D00F05CFBE8
:10509000C26832B110B4CC6B00220C645DF8044BD2
:1050A0002CE799E7704700BF836813B101460120E0
:1050B0001847704700B5042907D8DFE801F0030955
:1050C000060909000BB90F2A05D902205DF804FB77
:1050D00001205DF804FB00EB820252681846019B38
:1050E0001A605DF804FB00BF00B585B00A4603AB4B
:1050F000002100930B46FFF7DDFF039805B05DF834
:1051000004FB00BF00B5042907D8DFE801F003095C
:10511000060909000BB90F2A05D902205DF804FB26
:1051200001205DF804FB019900EB82020968184632
:1051300051605DF804FB00BF10B50C4684B004ABB1
:1051400043F8042D0021009322460B46FFF7DAFFB7
:1051500004B010BDF0B5D36BADF50F7D1364151D14
:1051600017AC07460E460FCD0FC40FCD0FC40FCDA1
:105170000FC495E80F004FF0FF3584E80F00169537
:1051800011E016A86A46FFF7D7FF16A83146B847C0
:1051900080B9049B0820694616AA9847052804464A
:1051A00009D0092806D026996846FFF7FFFD0C2193
:1051B0000028E6D0092416A8FFF74AFE20460DF580
:1051C0000F7DF0BD2DE9F04FCC6C904622688BB07E
:1051D00004340D460792089400F003091E46002B84
:1051E00064D11202032307928DF825608DF82430D4
:1051F0002B6DB9F1020F08BFAC6B13F0010343D163
:1052000000F00800C2B2039201932768002F3DD03E
:10521000022E47D02788B4F802A00434AB6C2AF0E1
:10522000010B40460F219B44FFF75EFF834537D8B3
:1052300027F001039B4458452CBF002001200AF0B1
:10524000010A07F0010747EA4A0ABAF1010F43D001
:105250003AD3BAF1020F1FD1236823F00042029221
:10526000B9F1000F7BD138B1039A002A00F0838096
:10527000029A002A00F0A680002B7ADB029B03F141
:10528000010A04EB8A04C0E700230193022E40DDEB
:10529000FFF710FE002842D009200BB0BDE8F08FC8
:1052A0000020CCE7D4F804A00834B7E7022B9FDC39
:1052B000130CDFB2120402218DF8253004EB8704B1
:1052C00007928DF8241093E7B9F1000F02D000285F
:1052D00040F0AD80043498E7B9F1000F26D1B0B1A9
:1052E00094E80C00D70F9A1CD6D005F15802013370
:1052F000069200F09280201DFFF7D6FD3A46014647
:1053000006AB2846AFF30080002840F0B580083493
:105310007BE7404607A900F019FB0028BCD1019BA0
:10532000002B59D108200BB0BDE8F08F40460D216D
:105330002F6AFFF7D9FE8742E9D1AB6A9C42E6D1DA
:105340002046FFF7D7FC0F2102464046FFF7F4FE48
:1053500040462A460021FFF7EFFE07209DE7404622
:105360000D212F6AFFF7C0FE874245D02368002B2E
:1053700084DA043482E7029B23B305F158030596CF
:10538000039F04F1040ADDF808B0CDF810901E4622
:1053900002E0D9454F4615D050460696FFF784FDEA
:1053A0000022014606AB2846AFF3008007F1010951
:1053B0000AF1040A0028ECD0029BDDF810909F420D
:1053C000059ED3D140460D21FFF78EFE069B286235
:1053D000AC626B62062060E70F214046FFF784FE57
:1053E0000E2102464046FFF7A7FE40460F21294AFC
:1053F000FFF7A2FE072050E7AB6A9C42B6D1042219
:1054000002990027A318A962EF622A636B632368DD
:10541000BB421FDB0123019330E740460D21FFF71C
:1054200063FE2862069B6B62AC62062035E720466D
:10543000FFF760FC04340646AC632846AFF30080F7
:1054400000283FF429AF404632460F21FFF774FE93
:10545000072022E70846013004EB8000FFF74AFCF2
:105460000F2102464046FFF767FE404639462A466E
:10547000FFF762FE072010E707460D214046FFF7C1
:1054800033FE022F2862CDD12B46069A43F82C2FEB
:105490006B62C9E700000000002393E6012391E658
:1054A00002238FE6F0B50546C5B004290CD8DFE825
:1054B00001F056030B300E00012B4FEA124496B256
:1054C00065D0052B00F08380022045B0F0BD002B95
:1054D000FAD1102AF8D82B68DC0600F1E98022AE58
:1054E0003046019200F0A2F9A86B019A0023012432
:1054F00004FA03F1114203D00168043046F8231086
:105500000133042BF4D1A863304600F085F9002064
:10551000DBE7032BD8D1140C97B23B19102BD3D84F
:105520002B681E0700F1E48022AE30467F0000F0B9
:1055300051F906EBC4027B1EAC6B57B12146043A0D
:1055400051F8040B013B42F8040F581CF8D104EB4E
:1055500087043046AC6300F01BF90020B5E7002B50
:10556000B2D1AC6B97B2281D012606FA03F139427D
:1055700003F1010302D0216804340160102B00F113
:105580000400F2D112F400501FD1AC639DE7321930
:10559000102A99D80F2C97D829680027C80754D407
:1055A00022A8019300F0E0F8019B19E00846374675
:1055B000012B00F097800F2CA86302D822A800F0DE
:1055C000D7F817B102A800F0DBF800207DE7371903
:1055D000202F3FF679AF0F2C30D93746002E44D11B
:1055E000A96B3246002EE1D000278E4644A84FEA30
:1055F000420C00EBC4000CF1FF328C385EF8046BF7
:10560000013A40F8046F561CF8D101EB8C00002FD2
:10561000CED02246102C44A938BF102201EBC20282
:10562000A2F5C47201467800043A01EB800051F8FB
:10563000046B814242F8046FF9D1B9E7102F41D9C8
:105640002A68103FD007114610D521F00102052B22
:105650002A60019328465BD021F0030140F8481BE3
:1056600000F082F8019B002F4AD02A6851075BD4D2
:10567000012B63D00F2C04D822A8019300F07CF8F2
:10568000019B002FACD002A8019300F07DF8019B94
:10569000C4F11002002AA96BA7DC2246102C44A8F2
:1056A00038BF102200EBC202A2F5C4727800BBE73B
:1056B00023F010032B6005F5E870019200F0B6F8B6
:1056C000019A0CE72968C8071DD5284621F0010278
:1056D00042F0020240F8482B0193002700F04CF8FA
:1056E000019BC9E70430A86322A800F039F86CE7F1
:1056F00023F008032B6005F5A87000F06BF813E7A2
:10570000012B3FF44DAF0F2C98BF0027B4D967E7AA
:1057100042F0020240F8482B00F02EF8019B002FC7
:10572000AAD02A685107A5D5284622F0040240F8DD
:10573000D02B019300F028F8019B99E722A8019350
:1057400000F012F8019BA3E700F1340191E8380062
:105750009C46A6464CF8045D90E8FF0FE54600BD68
:1057600090EC210B704700BF80EC210B704700BF0D
:1057700090EC200B704700BF80EC200B704700BFFF
:10578000D0EC200B704700BFC0EC200B704700BF6F
:10579000F0EC0201F0EC0211F0EC0221F0EC02312D
:1057A000F0EC0241F0EC0251F0EC0261F0EC02711D
:1057B000F0EC0281F0EC0291F0EC02A1F0EC02B10D
:1057C000F0EC02C1F0EC02D1F0EC02E1F0EC02F1FD
:1057D000704700BFE0EC0201E0EC0211E0EC0221B6
:1057E000E0EC0231E0EC0241E0EC0251E0EC02615D
:1057F000E0EC0271E0EC0281E0EC0291E0EC02A14D
:10580000E0EC02B1E0EC02C1E0EC02D1E0EC02E13C
:10581000E0EC02F1704700BFB0FC0181B0FC0191E7
:10582000B0FC01A1B0FC01B1704700BFA0FC018138
:10583000A0FC0191A0FC01A1A0FC01B1704700BF38
:10584000EC4600B52DE900502DE9FF1F4FF0000395
:105850002DE90C0001A9FFF7BFFBDDF840E012B015
:10586000704700BFEC4600B52DE900502DE9FF1F41
:105870004FF000032DE90C0001A9FFF7E7FBDDF86D
:1058800040E012B0704700BFEC4600B52DE9005073
:105890002DE9FF1F4FF000032DE90C0001A9FFF7D0
:1058A000F7FBDDF840E012B0704700BFEC4600B5F2
:1058B0002DE900502DE9FF1F4FF000032DE90C00EA
:1058C00001ABFFF7B9FBDDF840E012B0704700BF55
:1058D000EC4600B52DE900502DE9FF1F4FF0000305
:1058E0002DE90C0001AAFFF735FCDDF840E012B00D
:1058F000704700BF037A1BB9437A43B9B0207047A1
:105900005A1E036802721A020260180E704742683B
:10591000013B10B4437213680321141D01721A0273
:10592000446002605DF8044B180E704700B585B006
:1059300003AB002100930C220B46FFF7BBFB03983F
:1059400005B05DF804FB00BFF0E700BF2DE9F043B0
:1059500006460D4685B04FF000082846FFF7CAFFFF
:10596000B028044600F0B58020F07F0111F0FF015F
:1059700020D000F0F003802B7AD0902B36D0A02BD3
:1059800049D0B02B5CD0C02B00F0898000F0F80328
:10599000D02B0BD100F00702013242F40022304636
:1059A00001210523FFF77EFD0028D6D0092005B090
:1059B000BDE8F0830DF10C090B468700CDF800908F
:1059C00030460D22FFF776FBFFB2039B04376006DB
:1059D0004FF000014CBFDF1BFF18CDF800900B46C5
:1059E00030460D220397FFF78DFBB6E700F00D035D
:1059F0000D2BDBD003AF002100F00F020B46009708
:105A00003046FFF757FB002100970B4630460D222A
:105A1000FFF778FBA1E7C3434FF47F6203F007036E
:105A20001A41010702F47F624FF0000148BF42F4BF
:105A300080420B463046FFF735FD0028B6D18CE793
:105A4000B1284CD0B2285DD0B32800F08A8000F095
:105A5000FC03B42BAAD000F007020132012142F46A
:105A600000220B463046FFF71DFD00289ED174E74B
:105A70002846FFF73FFF24022043B0F5004F95D0A2
:105A800004010021A2B20B463046FFF70BFD0028AF
:105A90008CD114F4004F18BF4FF001085DE7C62801
:105AA00072D0C7287AD000F0F803C02B00F08980AC
:105AB000C82800F0A580C9287FF478AF2846FFF7F2
:105AC00019FF00F00F02013200F0F00042EA00324C
:105AD00065E7B8F1000F00F08280002067E72846F4
:105AE000FFF708FF024600283FF460AF10F0F00116
:105AF0007FF45CAF30460B46FFF7D4FC00287FF400
:105B000055AF2AE700210DF10C090D220B46CDF807
:105B100000903046FFF7CEFA2846FFF7EBFE02066C
:105B20004FF002040CD5039B00F07F00A04003441B
:105B300028460393FFF7DEFE030604F10704F2D4C0
:105B4000039B00F07F00A04003F5017300211C18A7
:105B5000CDF800900B4630460D220394FFF7D2FAA1
:105B6000FBE62846FFF7C6FE00F00F02013200F008
:105B7000F000012142EA00320B463046FFF792FC6A
:105B800000287FF413AFE8E62846FFF7B3FE00F0E5
:105B90000F02013200F0F0000321EBE72846FFF787
:105BA000A9FE024600283FF401AF10F0F0037FF495
:105BB000FDAE30460421FFF775FC00287FF4F6AEF9
:105BC000CBE600F00F020132032142F420220B4603
:105BD0003046FFF767FC00287FF4E8AEBDE603AC73
:105BE00041460E22434600943046FFF763FA009484
:105BF000304641460F224346FFF784FA4046D6E638
:105C00002846FFF777FE00F0F00200F00F03103295
:105C1000013343EA0232C2E610B5C36C84B00320FC
:105C20005A688DF80C00DC7912020833084601A985
:105C300001928DF80D400293FFF788FE04B010BD6D
:105C400008B5FFF781FE806C08BD00BF08B5FFF7FF
:105C50007BFEC36CD87903EB8000083008BD00BF21
:105C600008B500F0AAFB00BF08B500F0A6FB00BF16
:105C7000704700BF00292DE9F043C0F2A88000263C
:105C8000002BC0F29E8081468E4690469C46174669
:105C900004460D46002B3DD18A4259D9B2FA82F30F
:105CA0003BB1C3F120029D4020FA02F29F40154310
:105CB0009C40390CB5FBF1F01FFA87FE01FB105533
:105CC0000EFB00F3220C42EA0545AB4209D9ED195F
:105CD00000F1FF3280F00B81AB4240F208810238C4
:105CE0003D44ED1AB5FBF1F301FB13550EFB03FE2A
:105CF000A4B244EA0545AE4508D9ED1903F1FF32D7
:105D000080F0F780AE4540F2F480023B43EA004366
:105D1000002203E08B420FD900221346341C18BF27
:105D2000012460424FF0000565EB450158405140A9
:105D300000196941BDE8F083B3FA83F2002A40F00C
:105D400089808B4202D3804500F2E2800123E5E79F
:105D500012B90123B3FBF2F7B7FA87F8B8F1000FD5
:105D60003BD1ED1B4FEA174C1FFA87FE0122B5FB12
:105D7000FCF00CFB10550EFB00F3210C41EA05452D
:105D8000AB4207D9ED1900F1FF3102D2AB4200F26C
:105D9000C3800846ED1AB5FBFCF30CFB13550EFB54
:105DA00003FEA4B244EA0545AE4507D9ED1903F157
:105DB000FF3102D2AE4500F2AD800B4643EA00430C
:105DC000ACE752426FEA060663EB43035BE74042EF
:105DD00061EB41014FF0FF3652E707FA08F7C8F1CF
:105DE000200225FA02F34FEA174CB3FBFCF11FFA2D
:105DF00087FE0CFB113324FA02F205FA08F50EFBBC
:105E000001F92A43100C40EA0343994504FA08F4C7
:105E100007D9DB1901F1FF3078D2994576D90239DB
:105E20003B44C9EB0303B3FBFCF00CFB10330EFB4C
:105E300000F592B242EA03439D4207D9DB1900F113
:105E4000FF325FD29D425DD902383B445D1B40EA80
:105E500001428CE7C2F1200328FA03F10CFA02FC9C
:105E600041EA0C0C4FEA1C402EFA03F1B1FBF0F5AD
:105E70001FFA8CF700FB151129FA03F30EFA02FE44
:105E800007FB05F943EA0E0E4FEA1E4343EA0141C0
:105E9000894508FA02F808D911EB0C0105F1FF3326
:105EA00032D2894530D9023D6144C9EB0101B1FBD1
:105EB000F0F300FB131107FB03F71FFA8EFE4EEA07
:105EC000014E774508D91EEB0C0E03F1FF3117D2B6
:105ED000774515D9023BE64443EA0543A3FB08890D
:105EE000C7EB0E0ECE4509D305D0002216E71046AB
:105EF000F7E613460AE794404445F6D2013BF4E73F
:105F00000B46E9E71046A1E71D46CEE7014688E7C4
:105F1000134603E7023B51E702383D443AE700BF2E
:105F20002DE9F043002B44D18A42154604464FD94F
:105F3000B2FA82F70E464FB1C7F12003B94020FAFA
:105F400003F602FA07F50E4300FA07F42F0CB6FB2E
:105F5000F7F01FFA85FE07FB10620EFB00F1260C1E
:105F600046EA0243994209D95B1900F1FF3280F0F9
:105F7000EE80994240F2EB8002382B44591AB1FB73
:105F8000F7F307FB13110EFB03FEA4B244EA014131
:105F90008E4508D9491903F1FF3280F0DA808E4529
:105FA00040F2D780023B43EA004000263146BDE87C
:105FB000F0838B4247D8B3FA83F6002E48D18B4248
:105FC00002D3824200F2CF8001203146BDE8F08347
:105FD00012B90125B5FBF2F5B5FA85FCBCF1000F4D
:105FE00078D1491B2F0C1FFA85FE0126B1FBF7F073
:105FF00007FB10110EFB00F2230C43EA01418A4219
:1060000007D9491900F1FF3302D28A4200F2BC805D
:106010001846891AB1FBF7F307FB13110EFB03FEB9
:10602000A4B244EA0142964508D9521903F1FF315E
:1060300080F09180964540F28E80023B43EA00401A
:106040003146BDE8F083002630463146BDE8F08396
:10605000C6F1200422FA04F5B3402B4321FA04F7D9
:106060004FEA1348B7FBF8FC1FFA83F908FB1C77CB
:1060700020FA04FE01FA06F509FB0CF44EEA0505C8
:106080004FEA154E4EEA0747BC4202FA06F204D91F
:10609000FF180CF1FF3168D38C463F1BB7FBF8F4B7
:1060A00008FB147709FB04F9ADB245EA07418945BD
:1060B00004D9C91804F1FF355DD32C4644EA0C44D9
:1060C000A4FB0223C9EB0101994249D345D02046E4
:1060D00000266BE7CCF1200405FA0CF521FA04F355
:1060E0002A0CB3FBF2F61FFA85FE02FB163820FAE3
:1060F00004F701FA0CF10EFB06F90F433C0C44EADD
:106100000843994500FA0CF407D95B1906F1FF31F1
:1061100038D2994536D9023E2B44C9EB0303B3FB71
:10612000F2F002FB10330EFB00F1BFB247EA03436B
:10613000994207D95B1900F1FF3721D299421FD943
:1061400002382B441746591A40EA06464EE71046D5
:1061500014E7134627E70B4670E7B0409042B6D2EB
:10616000601E002622E7304620E7BC4294D9ACF1FD
:10617000020C1F4491E789459FD9023C19449DE7D1
:106180003846DFE70E46C8E70238294441E700BF3A
:1061900003460846194600F017B900F05DB97FB50F
:1061A000102302930368002415469E6900946B46F1
:1061B0008DF8044003941268B0479DF8043003F052
:1061C0000603062B11BF2046009B01202B6004B064
:1061D00070BD009890420CBF06200120704700005F
:1061E00010B50446024B036000F0CCF8204610BD09
:1061F0001069000010B50446FFF7F2FF2046FFF7D4
:10620000CCFF204610BD38B515461C4600F0BFF83F
:1062100020B10823E36006232560237138BD2DE9F2
:10622000F04106460C4615461F4600F0B0F848B946
:10623000032F07D82368204631462A46BDE8F0419F
:106240005B691847BDE8F0812DE9F041069E1F46C5
:10625000089B80469E421546099C03D1079900F091
:1062600096F848B94046394600F091F828B1012324
:1062700026602571A37100E065710020BDE8F08102
:1062800010B50446024B0360FFF7AAFF204610BD7D
:106290007069000010B50446FFF7F2FF2046FFF7D3
:1062A0007CFF204610BD2DE9F041069E80469642B7
:1062B0000F4615461C4603D1194600F068F858B938
:1062C000D8F808003946036806961E6A2A4623460F
:1062D000B446BDE8F04160470620BDE8F0812DE9F5
